{
  "contractName": "Product",
  "abi": [
    {
      "constant": true,
      "inputs": [],
      "name": "enabled",
      "outputs": [
        {
          "name": "",
          "type": "bool"
        }
      ],
      "payable": false,
      "stateMutability": "view",
      "type": "function"
    },
    {
      "constant": false,
      "inputs": [],
      "name": "enableContract",
      "outputs": [],
      "payable": false,
      "stateMutability": "nonpayable",
      "type": "function"
    },
    {
      "constant": false,
      "inputs": [],
      "name": "renounceOwnership",
      "outputs": [],
      "payable": false,
      "stateMutability": "nonpayable",
      "type": "function"
    },
    {
      "constant": false,
      "inputs": [],
      "name": "disableContract",
      "outputs": [],
      "payable": false,
      "stateMutability": "nonpayable",
      "type": "function"
    },
    {
      "constant": true,
      "inputs": [],
      "name": "owner",
      "outputs": [
        {
          "name": "",
          "type": "address"
        }
      ],
      "payable": false,
      "stateMutability": "view",
      "type": "function"
    },
    {
      "constant": false,
      "inputs": [
        {
          "name": "newOwner",
          "type": "address"
        }
      ],
      "name": "transferOwnership",
      "outputs": [],
      "payable": false,
      "stateMutability": "nonpayable",
      "type": "function"
    },
    {
      "inputs": [],
      "payable": false,
      "stateMutability": "nonpayable",
      "type": "constructor"
    },
    {
      "anonymous": false,
      "inputs": [
        {
          "indexed": false,
          "name": "id",
          "type": "uint256"
        },
        {
          "indexed": false,
          "name": "name",
          "type": "string"
        },
        {
          "indexed": false,
          "name": "extend",
          "type": "string"
        },
        {
          "indexed": false,
          "name": "price",
          "type": "uint256"
        },
        {
          "indexed": false,
          "name": "creator",
          "type": "address"
        },
        {
          "indexed": false,
          "name": "file_uri",
          "type": "string"
        },
        {
          "indexed": false,
          "name": "file_hash",
          "type": "string"
        }
      ],
      "name": "CreateProduct",
      "type": "event"
    },
    {
      "anonymous": false,
      "inputs": [
        {
          "indexed": false,
          "name": "id",
          "type": "uint256"
        },
        {
          "indexed": false,
          "name": "name",
          "type": "string"
        },
        {
          "indexed": false,
          "name": "extend",
          "type": "string"
        },
        {
          "indexed": false,
          "name": "price",
          "type": "uint256"
        },
        {
          "indexed": false,
          "name": "creator",
          "type": "address"
        }
      ],
      "name": "EditProduct",
      "type": "event"
    },
    {
      "anonymous": false,
      "inputs": [
        {
          "indexed": false,
          "name": "id",
          "type": "uint256"
        }
      ],
      "name": "RemoveProduct",
      "type": "event"
    },
    {
      "anonymous": false,
      "inputs": [
        {
          "indexed": false,
          "name": "id",
          "type": "uint256"
        },
        {
          "indexed": false,
          "name": "coinID",
          "type": "uint256"
        },
        {
          "indexed": false,
          "name": "productID",
          "type": "uint256"
        },
        {
          "indexed": false,
          "name": "price",
          "type": "uint256"
        }
      ],
      "name": "AddPayment",
      "type": "event"
    },
    {
      "anonymous": false,
      "inputs": [
        {
          "indexed": false,
          "name": "coinID",
          "type": "uint256"
        },
        {
          "indexed": false,
          "name": "productID",
          "type": "uint256"
        },
        {
          "indexed": false,
          "name": "price",
          "type": "uint256"
        }
      ],
      "name": "SetPaymentWayPrice",
      "type": "event"
    },
    {
      "anonymous": false,
      "inputs": [
        {
          "indexed": false,
          "name": "coinID",
          "type": "uint256"
        },
        {
          "indexed": false,
          "name": "productID",
          "type": "uint256"
        }
      ],
      "name": "RemovePaymentWay",
      "type": "event"
    },
    {
      "anonymous": false,
      "inputs": [
        {
          "indexed": true,
          "name": "previousOwner",
          "type": "address"
        },
        {
          "indexed": true,
          "name": "newOwner",
          "type": "address"
        }
      ],
      "name": "OwnershipTransferred",
      "type": "event"
    },
    {
      "anonymous": false,
      "inputs": [
        {
          "indexed": false,
          "name": "id",
          "type": "uint256"
        },
        {
          "indexed": false,
          "name": "erc20",
          "type": "address"
        }
      ],
      "name": "AddNewERC20",
      "type": "event"
    },
    {
      "anonymous": false,
      "inputs": [
        {
          "indexed": false,
          "name": "id",
          "type": "uint256"
        },
        {
          "indexed": false,
          "name": "erc20",
          "type": "address"
        }
      ],
      "name": "RemoveERC20",
      "type": "event"
    },
    {
      "anonymous": false,
      "inputs": [
        {
          "indexed": false,
          "name": "id",
          "type": "uint256"
        },
        {
          "indexed": false,
          "name": "erc20",
          "type": "address"
        }
      ],
      "name": "DisableERC20",
      "type": "event"
    },
    {
      "anonymous": false,
      "inputs": [
        {
          "indexed": false,
          "name": "id",
          "type": "uint256"
        },
        {
          "indexed": false,
          "name": "erc20",
          "type": "address"
        }
      ],
      "name": "EnableERC20",
      "type": "event"
    },
    {
      "anonymous": false,
      "inputs": [
        {
          "indexed": false,
          "name": "id",
          "type": "uint256"
        }
      ],
      "name": "AdminDisableProduct",
      "type": "event"
    },
    {
      "anonymous": false,
      "inputs": [
        {
          "indexed": false,
          "name": "id",
          "type": "uint256"
        }
      ],
      "name": "AdminEnableProduct",
      "type": "event"
    },
    {
      "constant": false,
      "inputs": [
        {
          "name": "erc20",
          "type": "address"
        }
      ],
      "name": "addERC20",
      "outputs": [
        {
          "name": "",
          "type": "uint256"
        }
      ],
      "payable": false,
      "stateMutability": "nonpayable",
      "type": "function"
    },
    {
      "constant": true,
      "inputs": [
        {
          "name": "id",
          "type": "uint256"
        }
      ],
      "name": "getERC20",
      "outputs": [
        {
          "name": "",
          "type": "address"
        }
      ],
      "payable": false,
      "stateMutability": "view",
      "type": "function"
    },
    {
      "constant": false,
      "inputs": [
        {
          "name": "id",
          "type": "uint256"
        }
      ],
      "name": "removeERC20",
      "outputs": [],
      "payable": false,
      "stateMutability": "nonpayable",
      "type": "function"
    },
    {
      "constant": false,
      "inputs": [
        {
          "name": "id",
          "type": "uint256"
        }
      ],
      "name": "disableERC20",
      "outputs": [],
      "payable": false,
      "stateMutability": "nonpayable",
      "type": "function"
    },
    {
      "constant": false,
      "inputs": [
        {
          "name": "id",
          "type": "uint256"
        }
      ],
      "name": "enableERC20",
      "outputs": [],
      "payable": false,
      "stateMutability": "nonpayable",
      "type": "function"
    },
    {
      "constant": true,
      "inputs": [
        {
          "name": "id",
          "type": "uint256"
        }
      ],
      "name": "isERC20Disabled",
      "outputs": [
        {
          "name": "",
          "type": "bool"
        }
      ],
      "payable": false,
      "stateMutability": "view",
      "type": "function"
    },
    {
      "constant": false,
      "inputs": [
        {
          "name": "id",
          "type": "uint256"
        }
      ],
      "name": "disableProduct",
      "outputs": [],
      "payable": false,
      "stateMutability": "nonpayable",
      "type": "function"
    },
    {
      "constant": false,
      "inputs": [
        {
          "name": "id",
          "type": "uint256"
        }
      ],
      "name": "enableProduct",
      "outputs": [],
      "payable": false,
      "stateMutability": "nonpayable",
      "type": "function"
    },
    {
      "constant": true,
      "inputs": [
        {
          "name": "id",
          "type": "uint256"
        }
      ],
      "name": "isProductDisabled",
      "outputs": [
        {
          "name": "",
          "type": "bool"
        }
      ],
      "payable": false,
      "stateMutability": "view",
      "type": "function"
    },
    {
      "constant": false,
      "inputs": [
        {
          "name": "name",
          "type": "string"
        },
        {
          "name": "extend",
          "type": "string"
        },
        {
          "name": "price",
          "type": "uint256"
        },
        {
          "name": "file_uri",
          "type": "string"
        },
        {
          "name": "file_hash",
          "type": "string"
        }
      ],
      "name": "createProduct",
      "outputs": [
        {
          "name": "",
          "type": "uint256"
        }
      ],
      "payable": false,
      "stateMutability": "nonpayable",
      "type": "function"
    },
    {
      "constant": true,
      "inputs": [
        {
          "name": "file_uri",
          "type": "string"
        },
        {
          "name": "file_hash",
          "type": "string"
        }
      ],
      "name": "isFileExists",
      "outputs": [
        {
          "name": "",
          "type": "bool"
        }
      ],
      "payable": false,
      "stateMutability": "view",
      "type": "function"
    },
    {
      "constant": false,
      "inputs": [
        {
          "name": "id",
          "type": "uint256"
        },
        {
          "name": "name",
          "type": "string"
        },
        {
          "name": "extend",
          "type": "string"
        },
        {
          "name": "price",
          "type": "uint256"
        }
      ],
      "name": "editProduct",
      "outputs": [],
      "payable": false,
      "stateMutability": "nonpayable",
      "type": "function"
    },
    {
      "constant": false,
      "inputs": [
        {
          "name": "id",
          "type": "uint256"
        }
      ],
      "name": "removeProduct",
      "outputs": [],
      "payable": false,
      "stateMutability": "nonpayable",
      "type": "function"
    },
    {
      "constant": true,
      "inputs": [],
      "name": "countOfProducts",
      "outputs": [
        {
          "name": "",
          "type": "uint256"
        }
      ],
      "payable": false,
      "stateMutability": "view",
      "type": "function"
    },
    {
      "constant": true,
      "inputs": [
        {
          "name": "id",
          "type": "uint256"
        }
      ],
      "name": "getNameOfProduct",
      "outputs": [
        {
          "name": "",
          "type": "string"
        }
      ],
      "payable": false,
      "stateMutability": "view",
      "type": "function"
    },
    {
      "constant": true,
      "inputs": [
        {
          "name": "id",
          "type": "uint256"
        }
      ],
      "name": "getExtendOfProduct",
      "outputs": [
        {
          "name": "",
          "type": "string"
        }
      ],
      "payable": false,
      "stateMutability": "view",
      "type": "function"
    },
    {
      "constant": true,
      "inputs": [
        {
          "name": "id",
          "type": "uint256"
        }
      ],
      "name": "getPriceOfProduct",
      "outputs": [
        {
          "name": "",
          "type": "uint256"
        }
      ],
      "payable": false,
      "stateMutability": "view",
      "type": "function"
    },
    {
      "constant": true,
      "inputs": [
        {
          "name": "id",
          "type": "uint256"
        }
      ],
      "name": "getFileUri",
      "outputs": [
        {
          "name": "",
          "type": "string"
        }
      ],
      "payable": false,
      "stateMutability": "view",
      "type": "function"
    },
    {
      "constant": true,
      "inputs": [
        {
          "name": "id",
          "type": "uint256"
        }
      ],
      "name": "getFileHash",
      "outputs": [
        {
          "name": "",
          "type": "string"
        }
      ],
      "payable": false,
      "stateMutability": "view",
      "type": "function"
    },
    {
      "constant": true,
      "inputs": [
        {
          "name": "id",
          "type": "uint256"
        }
      ],
      "name": "getProduct",
      "outputs": [
        {
          "name": "",
          "type": "string"
        },
        {
          "name": "",
          "type": "string"
        },
        {
          "name": "",
          "type": "uint256"
        }
      ],
      "payable": false,
      "stateMutability": "view",
      "type": "function"
    },
    {
      "constant": false,
      "inputs": [
        {
          "name": "coinID",
          "type": "uint256"
        },
        {
          "name": "productID",
          "type": "uint256"
        },
        {
          "name": "price",
          "type": "uint256"
        }
      ],
      "name": "addPaymentWay",
      "outputs": [
        {
          "name": "",
          "type": "uint256"
        }
      ],
      "payable": false,
      "stateMutability": "nonpayable",
      "type": "function"
    },
    {
      "constant": false,
      "inputs": [
        {
          "name": "coinID",
          "type": "uint256"
        },
        {
          "name": "productID",
          "type": "uint256"
        },
        {
          "name": "price",
          "type": "uint256"
        }
      ],
      "name": "setPaymentWayPrice",
      "outputs": [],
      "payable": false,
      "stateMutability": "nonpayable",
      "type": "function"
    },
    {
      "constant": false,
      "inputs": [
        {
          "name": "coinID",
          "type": "uint256"
        },
        {
          "name": "productID",
          "type": "uint256"
        }
      ],
      "name": "removePaymentWay",
      "outputs": [],
      "payable": false,
      "stateMutability": "nonpayable",
      "type": "function"
    },
    {
      "constant": true,
      "inputs": [
        {
          "name": "coinID",
          "type": "uint256"
        },
        {
          "name": "productID",
          "type": "uint256"
        }
      ],
      "name": "getPaymentWayPrice",
      "outputs": [
        {
          "name": "",
          "type": "uint256"
        }
      ],
      "payable": false,
      "stateMutability": "view",
      "type": "function"
    }
  ],
  "bytecode": "0x60806040526001600060146101000a81548160ff0219169083151502179055506000600155600060065560006007556000600b553480156200004057600080fd5b50620000736200005e62000079640100000000026401000000009004565b62000081640100000000026401000000009004565b62000145565b600033905090565b60008060009054906101000a900473ffffffffffffffffffffffffffffffffffffffff169050816000806101000a81548173ffffffffffffffffffffffffffffffffffffffff021916908373ffffffffffffffffffffffffffffffffffffffff1602179055508173ffffffffffffffffffffffffffffffffffffffff168173ffffffffffffffffffffffffffffffffffffffff167f8be0079c531659141344cd1fd0a4f28419497f9722a3daafe3b4186f6b6457e060405160405180910390a35050565b614cf280620001556000396000f300608060405260043610610180576000357c0100000000000000000000000000000000000000000000000000000000900463ffffffff1680630c7b7de11461018557806311b36bc71461022b578063238dafe0146102585780633545c94214610287578063367edd32146102dc57806343658a70146102f357806348bd68dd1461034a578063549e50fc146103b157806354e4b5c2146103f25780635ee95cae1461041f5780636b1d4eeb1461044c578063715018a61461047757806375c35ff11461048e57806382f72858146104d3578063883e878f14610540578063894ba833146105e65780638da5cb5b146105fd57806396363b2514610654578063aa18aaa914610699578063b81f8e9f146106e4578063b9db15b414610711578063c2301fa71461082a578063d17209d714610861578063d7d6ef4014610902578063d80c33381461092f578063eb13113514610970578063f2fde38b14610a16578063fc40625514610a59578063fc913ad914610ac4578063fd76416a14610b6a575b600080fd5b34801561019157600080fd5b506101b060048036038101908080359060200190929190505050610b97565b6040518080602001828103825283818151815260200191508051906020019080838360005b838110156101f05780820151818401526020810190506101d5565b50505050905090810190601f16801561021d5780820380516001836020036101000a031916815260200191505b509250505060405180910390f35b34801561023757600080fd5b5061025660048036038101908080359060200190929190505050610c4f565b005b34801561026457600080fd5b5061026d610f7d565b604051808215151515815260200191505060405180910390f35b34801561029357600080fd5b506102c6600480360381019080803590602001909291908035906020019092919080359060200190929190505050610f90565b6040518082815260200191505060405180910390f35b3480156102e857600080fd5b506102f16114c3565b005b3480156102ff57600080fd5b50610334600480360381019080803573ffffffffffffffffffffffffffffffffffffffff169060200190929190505050611591565b6040518082815260200191505060405180910390f35b34801561035657600080fd5b506103af60048036038101908080359060200190929190803590602001908201803590602001919091929391929390803590602001908201803590602001919091929391929390803590602001909291905050506118ac565b005b3480156103bd57600080fd5b506103dc60048036038101908080359060200190929190505050611ee9565b6040518082815260200191505060405180910390f35b3480156103fe57600080fd5b5061041d60048036038101908080359060200190929190505050611f09565b005b34801561042b57600080fd5b5061044a60048036038101908080359060200190929190505050612267565b005b34801561045857600080fd5b50610461612588565b6040518082815260200191505060405180910390f35b34801561048357600080fd5b5061048c612592565b005b34801561049a57600080fd5b506104b96004803603810190808035906020019092919050505061264f565b604051808215151515815260200191505060405180910390f35b3480156104df57600080fd5b506104fe6004803603810190808035906020019092919050505061267c565b604051808273ffffffffffffffffffffffffffffffffffffffff1673ffffffffffffffffffffffffffffffffffffffff16815260200191505060405180910390f35b34801561054c57600080fd5b5061056b600480360381019080803590602001909291905050506126bc565b6040518080602001828103825283818151815260200191508051906020019080838360005b838110156105ab578082015181840152602081019050610590565b50505050905090810190601f1680156105d85780820380516001836020036101000a031916815260200191505b509250505060405180910390f35b3480156105f257600080fd5b506105fb612774565b005b34801561060957600080fd5b50610612612841565b604051808273ffffffffffffffffffffffffffffffffffffffff1673ffffffffffffffffffffffffffffffffffffffff16815260200191505060405180910390f35b34801561066057600080fd5b5061067f6004803603810190808035906020019092919050505061286a565b604051808215151515815260200191505060405180910390f35b3480156106a557600080fd5b506106ce6004803603810190808035906020019092919080359060200190929190505050612897565b6040518082815260200191505060405180910390f35b3480156106f057600080fd5b5061070f60048036038101908080359060200190929190505050612a41565b005b34801561071d57600080fd5b5061073c60048036038101908080359060200190929190505050612d70565b604051808060200180602001848152602001838103835286818151815260200191508051906020019080838360005b8381101561078657808201518184015260208101905061076b565b50505050905090810190601f1680156107b35780820380516001836020036101000a031916815260200191505b50838103825285818151815260200191508051906020019080838360005b838110156107ec5780820151818401526020810190506107d1565b50505050905090810190601f1680156108195780820380516001836020036101000a031916815260200191505b509550505050505060405180910390f35b34801561083657600080fd5b5061085f6004803603810190808035906020019092919080359060200190929190505050612efd565b005b34801561086d57600080fd5b506108ec600480360381019080803590602001908201803590602001919091929391929390803590602001908201803590602001919091929391929390803590602001909291908035906020019082018035906020019190919293919293908035906020019082018035906020019190919293919293905050506131fa565b6040518082815260200191505060405180910390f35b34801561090e57600080fd5b5061092d60048036038101908080359060200190929190505050613869565b005b34801561093b57600080fd5b5061096e600480360381019080803590602001909291908035906020019092919080359060200190929190505050613b74565b005b34801561097c57600080fd5b5061099b60048036038101908080359060200190929190505050613de9565b6040518080602001828103825283818151815260200191508051906020019080838360005b838110156109db5780820151818401526020810190506109c0565b50505050905090810190601f168015610a085780820380516001836020036101000a031916815260200191505b509250505060405180910390f35b348015610a2257600080fd5b50610a57600480360381019080803573ffffffffffffffffffffffffffffffffffffffff169060200190929190505050613ea1565b005b348015610a6557600080fd5b50610aaa600480360381019080803590602001908201803590602001919091929391929390803590602001908201803590602001919091929391929390505050614029565b604051808215151515815260200191505060405180910390f35b348015610ad057600080fd5b50610aef6004803603810190808035906020019092919050505061416f565b6040518080602001828103825283818151815260200191508051906020019080838360005b83811015610b2f578082015181840152602081019050610b14565b50505050905090810190601f168015610b5c5780820380516001836020036101000a031916815260200191505b509250505060405180910390f35b348015610b7657600080fd5b50610b9560048036038101908080359060200190929190505050614227565b005b6060600860008381526020019081526020016000206001018054600181600116156101000203166002900480601f016020809104026020016040519081016040528092919081815260200182805460018160011615610100020316600290048015610c435780601f10610c1857610100808354040283529160200191610c43565b820191906000526020600020905b815481529060010190602001808311610c2657829003601f168201915b50505050509050919050565b610c576145aa565b73ffffffffffffffffffffffffffffffffffffffff16610c75612841565b73ffffffffffffffffffffffffffffffffffffffff16141515610d00576040517f08c379a00000000000000000000000000000000000000000000000000000000081526004018080602001828103825260208152602001807f4f776e61626c653a2063616c6c6572206973206e6f7420746865206f776e657281525060200191505060405180910390fd5b600060149054906101000a900460ff161515610d84576040517f08c379a00000000000000000000000000000000000000000000000000000000081526004018080602001828103825260188152602001807f54686520636f6e74726163742069732064697361626c6564000000000000000081525060200191505060405180910390fd5b60006002600083815260200190815260200160002060000154111515610e12576040517f08c379a00000000000000000000000000000000000000000000000000000000081526004018080602001828103825260148152602001807f5468697320636f696e206e6f742065786973747300000000000000000000000081525060200191505060405180910390fd5b6002600082815260200190815260200160002060010160149054906101000a900460ff161515610eaa576040517f08c379a000000000000000000000000000000000000000000000000000000000815260040180806020018281038252601f8152602001807f5468697320636f696e20686176656e2774206265656e2064697361626c65640081525060200191505060405180910390fd5b60006002600083815260200190815260200160002060010160146101000a81548160ff0219169083151502179055507fbfedda03e8dba254c94decb0f1378b9ed305a64fcc376a5cded015a668dcbb75816002600084815260200190815260200160002060010160009054906101000a900473ffffffffffffffffffffffffffffffffffffffff16604051808381526020018273ffffffffffffffffffffffffffffffffffffffff1673ffffffffffffffffffffffffffffffffffffffff1681526020019250505060405180910390a150565b600060149054906101000a900460ff1681565b60008060008060149054906101000a900460ff161515611018576040517f08c379a00000000000000000000000000000000000000000000000000000000081526004018080602001828103825260188152602001807f54686520636f6e74726163742069732064697361626c6564000000000000000081525060200191505060405180910390fd5b600060026000888152602001908152602001600020600001541115156110a6576040517f08c379a00000000000000000000000000000000000000000000000000000000081526004018080602001828103825260158152602001807f5468697320746f6b656e206e6f7420657869737473000000000000000000000081525060200191505060405180910390fd5b6002600087815260200190815260200160002060010160149054906101000a900460ff1615151561113f576040517f08c379a000000000000000000000000000000000000000000000000000000000815260040180806020018281038252601d8152602001807f5468697320746f6b656e2068617665206265656e2064697361626c656400000081525060200191505060405180910390fd5b600060086000878152602001908152602001600020600001541115156111cd576040517f08c379a00000000000000000000000000000000000000000000000000000000081526004018080602001828103825260178152602001807f546869732070726f64756374206e6f742065786973747300000000000000000081525060200191505060405180910390fd5b6008600086815260200190815260200160002060070160009054906101000a900460ff16151515611266576040517f08c379a000000000000000000000000000000000000000000000000000000000815260040180806020018281038252601e8152602001807f546869732070726f647563742068617665206265656e2072656d6f766564000081525060200191505060405180910390fd5b6008600086815260200190815260200160002060070160019054906101000a900460ff161515156112ff576040517f08c379a000000000000000000000000000000000000000000000000000000000815260040180806020018281038252601f8152602001807f546869732070726f647563742068617665206265656e2064697361626c65640081525060200191505060405180910390fd5b600c60008681526020019081526020016000209150600090505b81805490508110156113c95785828281548110151561133457fe5b906000526020600020906004020160020154141515156113bc576040517f08c379a00000000000000000000000000000000000000000000000000000000081526004018080602001828103825260188152602001807f54686973207061796d656e74207761792065786973747321000000000000000081525060200191505060405180910390fd5b8080600101915050611319565b6001600b60008282540192505081905550600c6000600b548152602001908152602001600020608060405190810160405280600b5481526020018781526020018881526020018681525090806001815401808255809150509060018203906000526020600020906004020160009091929091909150600082015181600001556020820151816001015560408201518160020155606082015181600301555050507f693cf9bfebfa67b25328d21e3f4803de944f287c1f48ff3b7fe89fed4002f722600b548787876040518085815260200184815260200183815260200182815260200194505050505060405180910390a150509392505050565b6114cb6145aa565b73ffffffffffffffffffffffffffffffffffffffff166114e9612841565b73ffffffffffffffffffffffffffffffffffffffff16141515611574576040517f08c379a00000000000000000000000000000000000000000000000000000000081526004018080602001828103825260208152602001807f4f776e61626c653a2063616c6c6572206973206e6f7420746865206f776e657281525060200191505060405180910390fd5b6001600060146101000a81548160ff021916908315150217905550565b600061159b6145aa565b73ffffffffffffffffffffffffffffffffffffffff166115b9612841565b73ffffffffffffffffffffffffffffffffffffffff16141515611644576040517f08c379a00000000000000000000000000000000000000000000000000000000081526004018080602001828103825260208152602001807f4f776e61626c653a2063616c6c6572206973206e6f7420746865206f776e657281525060200191505060405180910390fd5b600060149054906101000a900460ff1615156116c8576040517f08c379a00000000000000000000000000000000000000000000000000000000081526004018080602001828103825260188152602001807f54686520636f6e74726163742069732064697361626c6564000000000000000081525060200191505060405180910390fd5b6116dc8260036145b290919063ffffffff16565b151515611751576040517f08c379a000000000000000000000000000000000000000000000000000000000815260040180806020018281038252601b8152602001807f54686973204552432d323020616c72656164792065786973747321000000000081525060200191505060405180910390fd5b6001806000828254019250508190555061177582600361460b90919063ffffffff16565b5060606040519081016040528060015481526020018373ffffffffffffffffffffffffffffffffffffffff168152602001600015158152506002600060015481526020019081526020016000206000820151816000015560208201518160010160006101000a81548173ffffffffffffffffffffffffffffffffffffffff021916908373ffffffffffffffffffffffffffffffffffffffff16021790555060408201518160010160146101000a81548160ff0219169083151502179055509050507f2d76b19a364cf95abcd7af28342776596c5845d89446ee97880738396b79e16960015483604051808381526020018273ffffffffffffffffffffffffffffffffffffffff1673ffffffffffffffffffffffffffffffffffffffff1681526020019250505060405180910390a160009050919050565b600060149054906101000a900460ff161515611930576040517f08c379a00000000000000000000000000000000000000000000000000000000081526004018080602001828103825260188152602001807f54686520636f6e74726163742069732064697361626c6564000000000000000081525060200191505060405180910390fd5b600060086000888152602001908152602001600020600001541115156119be576040517f08c379a00000000000000000000000000000000000000000000000000000000081526004018080602001828103825260188152602001807f546869732070726f64756374206e6f742065786973747321000000000000000081525060200191505060405180910390fd5b3373ffffffffffffffffffffffffffffffffffffffff166008600088815260200190815260200160002060040160009054906101000a900473ffffffffffffffffffffffffffffffffffffffff1673ffffffffffffffffffffffffffffffffffffffff16141515611abd576040517f08c379a00000000000000000000000000000000000000000000000000000000081526004018080602001828103825260268152602001807f596f75277265206e6f74207468652063726561746f72206f662074686973207081526020017f726f64756374000000000000000000000000000000000000000000000000000081525060400191505060405180910390fd5b6008600087815260200190815260200160002060070160009054906101000a900460ff16151515611b56576040517f08c379a000000000000000000000000000000000000000000000000000000000815260040180806020018281038252601e8152602001807f546869732070726f647563742068617665206265656e2072656d6f766564000081525060200191505060405180910390fd5b611c40600860008881526020019081526020016000206001018054600181600116156101000203166002900480601f016020809104026020016040519081016040528092919081815260200182805460018160011615610100020316600290048015611c035780601f10611bd857610100808354040283529160200191611c03565b820191906000526020600020905b815481529060010190602001808311611be657829003601f168201915b505050505086868080601f016020809104026020016040519081016040528093929190818152602001838380828437820191505050505050614784565b1515611cef576009858560405180838380828437820191505092505050908152602001604051809103902060009054906101000a900460ff16151515611cee576040517f08c379a00000000000000000000000000000000000000000000000000000000081526004018080602001828103825260198152602001807f54686973206e616d6520616c726561647920657869737473210000000000000081525060200191505060405180910390fd5b5b6009600860008881526020019081526020016000206001016040518082805460018160011615610100020316600290048015611d625780601f10611d40576101008083540402835291820191611d62565b820191906000526020600020905b815481529060010190602001808311611d4e575b5050915050908152602001604051809103902060006101000a81549060ff021916905560016009868660405180838380828437820191505092505050908152602001604051809103902060006101000a81548160ff0219169083151502179055508484600860008981526020019081526020016000206001019190611de8929190614b75565b508282600860008981526020019081526020016000206002019190611e0e929190614b75565b508060086000888152602001908152602001600020600301819055507f871f030d348da9c69e774a9bf40d2c710268f2665bb08210547ae7370650cf92868686868686336040518088815260200180602001806020018581526020018473ffffffffffffffffffffffffffffffffffffffff1673ffffffffffffffffffffffffffffffffffffffff1681526020018381038352898982818152602001925080828437820191505083810382528787828181526020019250808284378201915050995050505050505050505060405180910390a1505050505050565b600060086000838152602001908152602001600020600301549050919050565b611f116145aa565b73ffffffffffffffffffffffffffffffffffffffff16611f2f612841565b73ffffffffffffffffffffffffffffffffffffffff16141515611fba576040517f08c379a00000000000000000000000000000000000000000000000000000000081526004018080602001828103825260208152602001807f4f776e61626c653a2063616c6c6572206973206e6f7420746865206f776e657281525060200191505060405180910390fd5b600060149054906101000a900460ff16151561203e576040517f08c379a00000000000000000000000000000000000000000000000000000000081526004018080602001828103825260188152602001807f54686520636f6e74726163742069732064697361626c6564000000000000000081525060200191505060405180910390fd5b600060086000838152602001908152602001600020600001541115156120cc576040517f08c379a00000000000000000000000000000000000000000000000000000000081526004018080602001828103825260188152602001807f546869732070726f64756374206e6f742065786973747321000000000000000081525060200191505060405180910390fd5b6008600082815260200190815260200160002060070160009054906101000a900460ff16151515612165576040517f08c379a000000000000000000000000000000000000000000000000000000000815260040180806020018281038252601e8152602001807f546869732070726f647563742068617665206265656e2072656d6f766564000081525060200191505060405180910390fd5b6008600082815260200190815260200160002060070160019054906101000a900460ff161515156121fe576040517f08c379a000000000000000000000000000000000000000000000000000000000815260040180806020018281038252601f8152602001807f546869732070726f647563742068617665206265656e2064697361626c65640081525060200191505060405180910390fd5b60016008600083815260200190815260200160002060070160016101000a81548160ff0219169083151502179055507fb0db403003953c416f28fe67132f1c70851b212c3fddf4e6cdcd9f902cf68877816040518082815260200191505060405180910390a150565b600060149054906101000a900460ff1615156122eb576040517f08c379a00000000000000000000000000000000000000000000000000000000081526004018080602001828103825260188152602001807f54686520636f6e74726163742069732064697361626c6564000000000000000081525060200191505060405180910390fd5b60006008600083815260200190815260200160002060000154111515612379576040517f08c379a00000000000000000000000000000000000000000000000000000000081526004018080602001828103825260188152602001807f546869732070726f64756374206e6f742065786973747321000000000000000081525060200191505060405180910390fd5b3373ffffffffffffffffffffffffffffffffffffffff166008600083815260200190815260200160002060040160009054906101000a900473ffffffffffffffffffffffffffffffffffffffff1673ffffffffffffffffffffffffffffffffffffffff16141515612478576040517f08c379a00000000000000000000000000000000000000000000000000000000081526004018080602001828103825260268152602001807f596f75277265206e6f74207468652063726561746f72206f662074686973207081526020017f726f64756374000000000000000000000000000000000000000000000000000081525060400191505060405180910390fd5b60096008600083815260200190815260200160002060010160405180828054600181600116156101000203166002900480156124eb5780601f106124c95761010080835404028352918201916124eb565b820191906000526020600020905b8154815290600101906020018083116124d7575b5050915050908152602001604051809103902060006101000a81549060ff021916905560016008600083815260200190815260200160002060070160006101000a81548160ff02191690831515021790555060016007600082825403925050819055507f56108406462998bc1d1dab7e8b6da9d06843111352f8c5a4288e4af59dc9c9ba816040518082815260200191505060405180910390a150565b6000600754905090565b61259a6145aa565b73ffffffffffffffffffffffffffffffffffffffff166125b8612841565b73ffffffffffffffffffffffffffffffffffffffff16141515612643576040517f08c379a00000000000000000000000000000000000000000000000000000000081526004018080602001828103825260208152602001807f4f776e61626c653a2063616c6c6572206973206e6f7420746865206f776e657281525060200191505060405180910390fd5b61264d600061485d565b565b60006002600083815260200190815260200160002060010160149054906101000a900460ff169050919050565b60006002600083815260200190815260200160002060010160009054906101000a900473ffffffffffffffffffffffffffffffffffffffff169050919050565b6060600860008381526020019081526020016000206005018054600181600116156101000203166002900480601f0160208091040260200160405190810160405280929190818152602001828054600181600116156101000203166002900480156127685780601f1061273d57610100808354040283529160200191612768565b820191906000526020600020905b81548152906001019060200180831161274b57829003601f168201915b50505050509050919050565b61277c6145aa565b73ffffffffffffffffffffffffffffffffffffffff1661279a612841565b73ffffffffffffffffffffffffffffffffffffffff16141515612825576040517f08c379a00000000000000000000000000000000000000000000000000000000081526004018080602001828103825260208152602001807f4f776e61626c653a2063616c6c6572206973206e6f7420746865206f776e657281525060200191505060405180910390fd5b60008060146101000a81548160ff021916908315150217905550565b60008060009054906101000a900473ffffffffffffffffffffffffffffffffffffffff16905090565b60006008600083815260200190815260200160002060070160019054906101000a900460ff169050919050565b6000806000806002600087815260200190815260200160002060000154111515612929576040517f08c379a00000000000000000000000000000000000000000000000000000000081526004018080602001828103825260158152602001807f5468697320746f6b656e206e6f7420657869737473000000000000000000000081525060200191505060405180910390fd5b600060086000868152602001908152602001600020600001541115156129b7576040517f08c379a00000000000000000000000000000000000000000000000000000000081526004018080602001828103825260178152602001807f546869732070726f64756374206e6f742065786973747300000000000000000081525060200191505060405180910390fd5b600c60008581526020019081526020016000209150600090505b8180549050811015612a38578482828154811015156129ec57fe5b9060005260206000209060040201600201541415612a2b578181815481101515612a1257fe5b9060005260206000209060040201600301549250612a39565b80806001019150506129d1565b5b505092915050565b612a496145aa565b73ffffffffffffffffffffffffffffffffffffffff16612a67612841565b73ffffffffffffffffffffffffffffffffffffffff16141515612af2576040517f08c379a00000000000000000000000000000000000000000000000000000000081526004018080602001828103825260208152602001807f4f776e61626c653a2063616c6c6572206973206e6f7420746865206f776e657281525060200191505060405180910390fd5b600060149054906101000a900460ff161515612b76576040517f08c379a00000000000000000000000000000000000000000000000000000000081526004018080602001828103825260188152602001807f54686520636f6e74726163742069732064697361626c6564000000000000000081525060200191505060405180910390fd5b60006002600083815260200190815260200160002060000154111515612c04576040517f08c379a00000000000000000000000000000000000000000000000000000000081526004018080602001828103825260148152602001807f5468697320636f696e206e6f742065786973747300000000000000000000000081525060200191505060405180910390fd5b6002600082815260200190815260200160002060010160149054906101000a900460ff16151515612c9d576040517f08c379a000000000000000000000000000000000000000000000000000000000815260040180806020018281038252601c8152602001807f5468697320636f696e2068617665206265656e2064697361626c65640000000081525060200191505060405180910390fd5b60016002600083815260200190815260200160002060010160146101000a81548160ff0219169083151502179055507f92b8c8059897423c130a9ec83eeac973e31e15b2c1e023421d083885baa119fb816002600084815260200190815260200160002060010160009054906101000a900473ffffffffffffffffffffffffffffffffffffffff16604051808381526020018273ffffffffffffffffffffffffffffffffffffffff1673ffffffffffffffffffffffffffffffffffffffff1681526020019250505060405180910390a150565b606080600060086000858152602001908152602001600020600101600860008681526020019081526020016000206002016008600087815260200190815260200160002060030154828054600181600116156101000203166002900480601f016020809104026020016040519081016040528092919081815260200182805460018160011615610100020316600290048015612e4d5780601f10612e2257610100808354040283529160200191612e4d565b820191906000526020600020905b815481529060010190602001808311612e3057829003601f168201915b50505050509250818054600181600116156101000203166002900480601f016020809104026020016040519081016040528092919081815260200182805460018160011615610100020316600290048015612ee95780601f10612ebe57610100808354040283529160200191612ee9565b820191906000526020600020905b815481529060010190602001808311612ecc57829003601f168201915b505050505091509250925092509193909250565b600080600060149054906101000a900460ff161515612f84576040517f08c379a00000000000000000000000000000000000000000000000000000000081526004018080602001828103825260188152602001807f54686520636f6e74726163742069732064697361626c6564000000000000000081525060200191505060405180910390fd5b60006002600086815260200190815260200160002060000154111515613012576040517f08c379a00000000000000000000000000000000000000000000000000000000081526004018080602001828103825260158152602001807f5468697320746f6b656e206e6f7420657869737473000000000000000000000081525060200191505060405180910390fd5b600060086000858152602001908152602001600020600001541115156130a0576040517f08c379a00000000000000000000000000000000000000000000000000000000081526004018080602001828103825260178152602001807f546869732070726f64756374206e6f742065786973747300000000000000000081525060200191505060405180910390fd5b600c60008481526020019081526020016000209150600090505b818054905081101561317d578382828154811015156130d557fe5b90600052602060002090600402016002015414156131705781818154811015156130fb57fe5b906000526020600020906004020160008082016000905560018201600090556002820160009055600382016000905550507f97a14fa6a7a6af992238ade50792ccc91f3ceb065227c12abecdd7c689db72348484604051808381526020018281526020019250505060405180910390a16131f4565b80806001019150506130ba565b600015156131f3576040517f08c379a00000000000000000000000000000000000000000000000000000000081526004018080602001828103825260168152602001807f5061796d656e7420776179206e6f74206578697374730000000000000000000081525060200191505060405180910390fd5b5b50505050565b60008060149054906101000a900460ff16151561327f576040517f08c379a00000000000000000000000000000000000000000000000000000000081526004018080602001828103825260188152602001807f54686520636f6e74726163742069732064697361626c6564000000000000000081525060200191505060405180910390fd5b60098a8a60405180838380828437820191505092505050908152602001604051809103902060009054906101000a900460ff16151515613327576040517f08c379a00000000000000000000000000000000000000000000000000000000081526004018080602001828103825260198152602001807f54686973206e616d6520616c726561647920657869737473210000000000000081525060200191505060405180910390fd5b600a858560405180838380828437820191505092505050908152602001604051809103902060010160009054906101000a900460ff161515156133d2576040517f08c379a000000000000000000000000000000000000000000000000000000000815260040180806020018281038252601d8152602001807f546869732066696c655f75726920616c7265616479206578697374732100000081525060200191505060405180910390fd5b6001600660008282540192505081905550600160098b8b60405180838380828437820191505092505050908152602001604051809103902060006101000a81548160ff0219169083151502179055506101406040519081016040528060065481526020018b8b8080601f016020809104026020016040519081016040528093929190818152602001838380828437820191505050505050815260200189898080601f01602080910402602001604051908101604052809392919081815260200183838082843782019150505050505081526020018781526020013373ffffffffffffffffffffffffffffffffffffffff16815260200186868080601f016020809104026020016040519081016040528093929190818152602001838380828437820191505050505050815260200184848080601f01602080910402602001604051908101604052809392919081815260200183838082843782019150505050505081526020016000151581526020016000151581526020016001151581525060086000600654815260200190815260200160002060008201518160000155602082015181600101908051906020019061358c929190614bf5565b5060408201518160020190805190602001906135a9929190614bf5565b506060820151816003015560808201518160040160006101000a81548173ffffffffffffffffffffffffffffffffffffffff021916908373ffffffffffffffffffffffffffffffffffffffff16021790555060a0820151816005019080519060200190613617929190614bf5565b5060c0820151816006019080519060200190613634929190614bf5565b5060e08201518160070160006101000a81548160ff0219169083151502179055506101008201518160070160016101000a81548160ff0219169083151502179055506101208201518160070160026101000a81548160ff0219169083151502179055509050506001600760008282540192505081905550604080519081016040528084848080601f016020809104026020016040519081016040528093929190818152602001838380828437820191505050505050815260200160011515815250600a86866040518083838082843782019150509250505090815260200160405180910390206000820151816000019080519060200190613736929190614bf5565b5060208201518160010160006101000a81548160ff0219169083151502179055509050507fd651cc64fdbf4c20d89871575a73695c18d07c8384364d166e21c1a9ec00de356006548b8b8b8b8b338c8c8c8c604051808c815260200180602001806020018981526020018873ffffffffffffffffffffffffffffffffffffffff1673ffffffffffffffffffffffffffffffffffffffff168152602001806020018060200185810385528f8f82818152602001925080828437820191505085810384528d8d82818152602001925080828437820191505085810383528989828181526020019250808284378201915050858103825287878281815260200192508082843782019150509f5050505050505050505050505050505060405180910390a160065490509998505050505050505050565b6138716145aa565b73ffffffffffffffffffffffffffffffffffffffff1661388f612841565b73ffffffffffffffffffffffffffffffffffffffff1614151561391a576040517f08c379a00000000000000000000000000000000000000000000000000000000081526004018080602001828103825260208152602001807f4f776e61626c653a2063616c6c6572206973206e6f7420746865206f776e657281525060200191505060405180910390fd5b600060149054906101000a900460ff16151561399e576040517f08c379a00000000000000000000000000000000000000000000000000000000081526004018080602001828103825260188152602001807f54686520636f6e74726163742069732064697361626c6564000000000000000081525060200191505060405180910390fd5b60006002600083815260200190815260200160002060000154111515613a2c576040517f08c379a00000000000000000000000000000000000000000000000000000000081526004018080602001828103825260148152602001807f5468697320636f696e206e6f742065786973747300000000000000000000000081525060200191505060405180910390fd5b7fc7433d7e42a887b9745a2d0db37a90077a5ee37a20c623aad689339ed80d1ff8816002600084815260200190815260200160002060010160009054906101000a900473ffffffffffffffffffffffffffffffffffffffff16604051808381526020018273ffffffffffffffffffffffffffffffffffffffff1673ffffffffffffffffffffffffffffffffffffffff1681526020019250505060405180910390a1613b176002600083815260200190815260200160002060010160009054906101000a900473ffffffffffffffffffffffffffffffffffffffff16600361492190919063ffffffff16565b50600260008281526020019081526020016000206000808201600090556001820160006101000a81549073ffffffffffffffffffffffffffffffffffffffff02191690556001820160146101000a81549060ff0219169055505050565b600080600060149054906101000a900460ff161515613bfb576040517f08c379a00000000000000000000000000000000000000000000000000000000081526004018080602001828103825260188152602001807f54686520636f6e74726163742069732064697361626c6564000000000000000081525060200191505060405180910390fd5b60006002600087815260200190815260200160002060000154111515613c89576040517f08c379a00000000000000000000000000000000000000000000000000000000081526004018080602001828103825260158152602001807f5468697320746f6b656e206e6f7420657869737473000000000000000000000081525060200191505060405180910390fd5b60006008600086815260200190815260200160002060000154111515613d17576040517f08c379a00000000000000000000000000000000000000000000000000000000081526004018080602001828103825260178152602001807f546869732070726f64756374206e6f742065786973747300000000000000000081525060200191505060405180910390fd5b600c60008581526020019081526020016000209150600090505b8180549050811015613de157848282815481101515613d4c57fe5b9060005260206000209060040201600201541415613dd457828282815481101515613d7357fe5b9060005260206000209060040201600301819055507f3c57b20932b217708830a974d952b09c3c7308aa4d8f32a5ebb3e053875d229985858560405180848152602001838152602001828152602001935050505060405180910390a1613de2565b8080600101915050613d31565b5b5050505050565b6060600860008381526020019081526020016000206006018054600181600116156101000203166002900480601f016020809104026020016040519081016040528092919081815260200182805460018160011615610100020316600290048015613e955780601f10613e6a57610100808354040283529160200191613e95565b820191906000526020600020905b815481529060010190602001808311613e7857829003601f168201915b50505050509050919050565b613ea96145aa565b73ffffffffffffffffffffffffffffffffffffffff16613ec7612841565b73ffffffffffffffffffffffffffffffffffffffff16141515613f52576040517f08c379a00000000000000000000000000000000000000000000000000000000081526004018080602001828103825260208152602001807f4f776e61626c653a2063616c6c6572206973206e6f7420746865206f776e657281525060200191505060405180910390fd5b600073ffffffffffffffffffffffffffffffffffffffff168173ffffffffffffffffffffffffffffffffffffffff161415151561401d576040517f08c379a00000000000000000000000000000000000000000000000000000000081526004018080602001828103825260268152602001807f4f776e61626c653a206e6577206f776e657220697320746865207a65726f206181526020017f646472657373000000000000000000000000000000000000000000000000000081525060400191505060405180910390fd5b6140268161485d565b50565b6000600a858560405180838380828437820191505092505050908152602001604051809103902060010160009054906101000a900460ff1680156141655750614164600a86866040518083838082843782019150509250505090815260200160405180910390206000018054600181600116156101000203166002900480601f0160208091040260200160405190810160405280929190818152602001828054600181600116156101000203166002900480156141275780601f106140fc57610100808354040283529160200191614127565b820191906000526020600020905b81548152906001019060200180831161410a57829003601f168201915b505050505084848080601f016020809104026020016040519081016040528093929190818152602001838380828437820191505050505050614784565b5b9050949350505050565b6060600860008381526020019081526020016000206002018054600181600116156101000203166002900480601f01602080910402602001604051908101604052809291908181526020018280546001816001161561010002031660029004801561421b5780601f106141f05761010080835404028352916020019161421b565b820191906000526020600020905b8154815290600101906020018083116141fe57829003601f168201915b50505050509050919050565b61422f6145aa565b73ffffffffffffffffffffffffffffffffffffffff1661424d612841565b73ffffffffffffffffffffffffffffffffffffffff161415156142d8576040517f08c379a00000000000000000000000000000000000000000000000000000000081526004018080602001828103825260208152602001807f4f776e61626c653a2063616c6c6572206973206e6f7420746865206f776e657281525060200191505060405180910390fd5b600060149054906101000a900460ff16151561435c576040517f08c379a00000000000000000000000000000000000000000000000000000000081526004018080602001828103825260188152602001807f54686520636f6e74726163742069732064697361626c6564000000000000000081525060200191505060405180910390fd5b600060086000838152602001908152602001600020600001541115156143ea576040517f08c379a00000000000000000000000000000000000000000000000000000000081526004018080602001828103825260188152602001807f546869732070726f64756374206e6f742065786973747321000000000000000081525060200191505060405180910390fd5b6008600082815260200190815260200160002060070160009054906101000a900460ff16151515614483576040517f08c379a000000000000000000000000000000000000000000000000000000000815260040180806020018281038252601e8152602001807f546869732070726f647563742068617665206265656e2072656d6f766564000081525060200191505060405180910390fd5b6008600082815260200190815260200160002060070160019054906101000a900460ff161515614541576040517f08c379a00000000000000000000000000000000000000000000000000000000081526004018080602001828103825260228152602001807f546869732070726f6475637420686176656e2774206265656e2064697361626c81526020017f656400000000000000000000000000000000000000000000000000000000000081525060400191505060405180910390fd5b60006008600083815260200190815260200160002060070160016101000a81548160ff0219169083151502179055507ff6097481571db05ad9be416b8831137a71841d0130e282d4916132c0058b9090816040518082815260200191505060405180910390a150565b600033905090565b60008260000160008373ffffffffffffffffffffffffffffffffffffffff1673ffffffffffffffffffffffffffffffffffffffff16815260200190815260200160002060009054906101000a900460ff16905092915050565b60008260000160008373ffffffffffffffffffffffffffffffffffffffff1673ffffffffffffffffffffffffffffffffffffffff16815260200190815260200160002060009054906101000a900460ff161561466a576000905061477e565b60018360000160008473ffffffffffffffffffffffffffffffffffffffff1673ffffffffffffffffffffffffffffffffffffffff16815260200190815260200160002060006101000a81548160ff02191690831515021790555082600201805490508360010160008473ffffffffffffffffffffffffffffffffffffffff1673ffffffffffffffffffffffffffffffffffffffff16815260200190815260200160002081905550826002018290806001815401808255809150509060018203906000526020600020016000909192909190916101000a81548173ffffffffffffffffffffffffffffffffffffffff021916908373ffffffffffffffffffffffffffffffffffffffff16021790555050600190505b92915050565b6000816040518082805190602001908083835b6020831015156147bc5780518252602082019150602081019050602083039250614797565b6001836020036101000a038019825116818451168082178552505050505050905001915050604051809103902060001916836040518082805190602001908083835b60208310151561482357805182526020820191506020810190506020830392506147fe565b6001836020036101000a03801982511681845116808217855250505050505090500191505060405180910390206000191614905092915050565b60008060009054906101000a900473ffffffffffffffffffffffffffffffffffffffff169050816000806101000a81548173ffffffffffffffffffffffffffffffffffffffff021916908373ffffffffffffffffffffffffffffffffffffffff1602179055508173ffffffffffffffffffffffffffffffffffffffff168173ffffffffffffffffffffffffffffffffffffffff167f8be0079c531659141344cd1fd0a4f28419497f9722a3daafe3b4186f6b6457e060405160405180910390a35050565b6000806000808560000160008673ffffffffffffffffffffffffffffffffffffffff1673ffffffffffffffffffffffffffffffffffffffff16815260200190815260200160002060009054906101000a900460ff1615156149855760009350614b6c565b60008660000160008773ffffffffffffffffffffffffffffffffffffffff1673ffffffffffffffffffffffffffffffffffffffff16815260200190815260200160002060006101000a81548160ff021916908315150217905550856002018054905092508560010160008673ffffffffffffffffffffffffffffffffffffffff1673ffffffffffffffffffffffffffffffffffffffff1681526020019081526020016000205491508560020160018403815481101515614a4157fe5b9060005260206000200160009054906101000a900473ffffffffffffffffffffffffffffffffffffffff169050808660020183815481101515614a8057fe5b9060005260206000200160006101000a81548173ffffffffffffffffffffffffffffffffffffffff021916908373ffffffffffffffffffffffffffffffffffffffff160217905550818660010160008373ffffffffffffffffffffffffffffffffffffffff1673ffffffffffffffffffffffffffffffffffffffff168152602001908152602001600020819055508560020160018403815481101515614b2257fe5b9060005260206000200160006101000a81549073ffffffffffffffffffffffffffffffffffffffff021916905585600201805480919060019003614b669190614c75565b50600193505b50505092915050565b828054600181600116156101000203166002900490600052602060002090601f016020900481019282601f10614bb657803560ff1916838001178555614be4565b82800160010185558215614be4579182015b82811115614be3578235825591602001919060010190614bc8565b5b509050614bf19190614ca1565b5090565b828054600181600116156101000203166002900490600052602060002090601f016020900481019282601f10614c3657805160ff1916838001178555614c64565b82800160010185558215614c64579182015b82811115614c63578251825591602001919060010190614c48565b5b509050614c719190614ca1565b5090565b815481835581811115614c9c57818360005260206000209182019101614c9b9190614ca1565b5b505050565b614cc391905b80821115614cbf576000816000905550600101614ca7565b5090565b905600a165627a7a723058202cd802374f6da644ea85f5b93887edbd964673ed2ee215e1a66e278f84032f6a0029",
  "source": "pragma solidity ^0.4.24;\n\nimport \"./lib/Ownable.sol\";\nimport \"./lib/set.sol\";\nimport \"./interfaces/IProduct.sol\";\nimport \"./interfaces/IProductManager.sol\";\n\nlibrary Library {\n  struct Data {\n     string val;\n     bool existed;\n   }\n}\n\ncontract Product is IProductManager, Ownable, IProduct {\n    using Set for Set.Data;\n    using Library for Library.Data;\n\n    // coins\n    struct Coin {\n        uint id;\n        address erc20;\n        bool disabled;\n    }\n    uint private _coin_seq = 0;\n    mapping(uint => Coin) _coins;\n    Set.Data _coins_addr;\n\n    // products\n    struct ProductItem {\n        uint256 id;\n        string name;\n        string extend;\n        uint256 price; // CPC price\n        address creator;\n        string file_uri;\n        string file_hash;\n        bool removed;\n        bool disabled;\n        bool enabled_cpc; // If enable the CPC payment way\n    }\n    uint256 private _product_seq = 0;\n    uint256 private _product_cnt = 0;\n    mapping(uint256 => ProductItem) _products;\n    mapping(string => bool) _product_names;\n    mapping(string => Library.Data) _files; // file_uri => file_hash\n\n    // Payment way of a products\n    struct ProductPaymentWay {\n        uint256 id;\n        uint256 productID;\n        uint coinID;\n        uint256 price;\n    }\n    uint256 private _payment_ways_seq = 0;\n    mapping(uint256 => ProductPaymentWay[]) _payment_ways; // product_id => Payments of this product\n    uint payment_ways_limit; // The upper limit of payment ways' count\n\n    constructor() public {}\n\n    /**\n     * Add new ERC20, returns a generated ID.\n     * Emits a {AddNewERC20} event.\n     */\n    function addERC20(address erc20) external onlyOwner onlyEnabled returns (uint) {\n        require(!_coins_addr.contains(erc20), \"This ERC-20 already exists!\");\n        _coin_seq += 1;\n        _coins_addr.insert(erc20);\n        _coins[_coin_seq] = Coin({erc20: erc20, id: _coin_seq, disabled: false});\n        emit AddNewERC20(_coin_seq, erc20);\n        return 0;\n    }\n\n    /**\n     * Get ERC20 address by ID\n     */\n    function getERC20(uint id) external view returns (address) {\n        return _coins[id].erc20;\n    }\n\n    /**\n     * Remove a ERC20\n     * Emits a {RemoveERC20} event\n     */\n    function removeERC20(uint id) external onlyOwner onlyEnabled {\n        require(_coins[id].id > 0, \"This coin not exists\");\n        emit RemoveERC20(id, _coins[id].erc20);\n        _coins_addr.remove(_coins[id].erc20);\n        delete _coins[id];\n    }\n\n    /**\n     * Disable a ERC20\n     * Emits a {DisableERC20} event.\n     */\n    function disableERC20(uint id) external onlyOwner onlyEnabled {\n        require(_coins[id].id > 0, \"This coin not exists\");\n        require(!_coins[id].disabled, \"This coin have been disabled\");\n        _coins[id].disabled = true;\n        emit DisableERC20(id, _coins[id].erc20);\n    }\n\n    /**\n     * Enable a ERC20\n     * Emits a {EnableERC20} event.\n     */\n    function enableERC20(uint id) external onlyOwner onlyEnabled {\n        require(_coins[id].id > 0, \"This coin not exists\");\n        require(_coins[id].disabled, \"This coin haven't been disabled\");\n        _coins[id].disabled = false;\n        emit EnableERC20(id, _coins[id].erc20);\n    }\n\n    /**\n     * Check if disabled\n     */\n    function isERC20Disabled(uint id) external view returns (bool) {\n        return _coins[id].disabled;\n    }\n\n    /**\n     * Disable product by admin\n     * Emits a {AdminDisableProduct} event.\n     */\n    function disableProduct(uint256 id) external onlyOwner onlyEnabled {\n        require(_products[id].id > 0, \"This product not exists!\");\n        require(!_products[id].removed, \"This product have been removed\");\n        require(!_products[id].disabled, \"This product have been disabled\");\n        _products[id].disabled = true;\n        emit AdminDisableProduct(id);\n    }\n\n    /**\n     * Enable product by admin\n     * Emits a {AdminEnableProduct} event.\n     */\n    function enableProduct(uint256 id) external onlyOwner onlyEnabled {\n        require(_products[id].id > 0, \"This product not exists!\");\n        require(!_products[id].removed, \"This product have been removed\");\n        require(_products[id].disabled, \"This product haven't been disabled\");\n        _products[id].disabled = false;\n        emit AdminEnableProduct(id);\n    }\n\n    /**\n     * Check if product have been disabled\n     */\n    function isProductDisabled(uint256 id) external view returns (bool) {\n        return _products[id].disabled;\n    }\n\n    /**\n     * Create product, returns a generated product id.\n     * Emits a {CreateProduct} event.\n     */\n    function createProduct(string name, string extend, uint256 price, string file_uri, string file_hash) external onlyEnabled returns (uint256) {\n        require(!_product_names[name], \"This name already exists!\");\n        require(!_files[file_uri].existed, \"This file_uri already exists!\");\n        _product_seq += 1;\n        _product_names[name] = true;\n        _products[_product_seq] = ProductItem({\n            id: _product_seq,\n            name: name,\n            extend: extend,\n            creator: msg.sender,\n            file_uri: file_uri,\n            file_hash: file_hash,\n            price: price,\n            disabled: false,\n            enabled_cpc: true,\n            removed: false\n        });\n        _product_cnt += 1;\n        _files[file_uri] = Library.Data({val: file_hash, existed: true});\n        emit CreateProduct(_product_seq, name, extend, price, msg.sender, file_uri, file_hash);\n        return _product_seq;\n    }\n\n    function equals(string memory a, string memory b) internal pure returns (bool) {\n        return keccak256(bytes(a)) == keccak256(bytes(b));\n    }\n\n    /**\n     * If the file exists\n     */\n    function isFileExists(string file_uri, string file_hash) external view returns (bool) {\n        return _files[file_uri].existed && equals(_files[file_uri].val, file_hash);\n    }\n\n    /**\n     * Edit Product\n     * Emits a {EditProduct} event.\n     */\n    function editProduct(uint256 id, string name, string extend, uint256 price) external onlyEnabled {\n        require(_products[id].id > 0, \"This product not exists!\");\n        require(_products[id].creator == msg.sender, \"You're not the creator of this product\");\n        require(!_products[id].removed, \"This product have been removed\");\n        // if changed the product name\n        if (!equals(_products[id].name, name)) {\n            require(!_product_names[name], \"This name already exists!\");\n        }\n        delete _product_names[_products[id].name];\n        _product_names[name] = true;\n        _products[id].name = name;\n        _products[id].extend = extend;\n        _products[id].price = price;\n        emit EditProduct(id, name, extend, price, msg.sender);\n    }\n\n    /**\n     * Remove Product\n     * Emits a {RemoveProduct} event.\n     */\n    function removeProduct(uint256 id) external onlyEnabled {\n        require(_products[id].id > 0, \"This product not exists!\");\n        require(_products[id].creator == msg.sender, \"You're not the creator of this product\");\n        delete _product_names[_products[id].name];\n        _products[id].removed = true;\n        _product_cnt -= 1;\n        emit RemoveProduct(id);\n    }\n\n    /**\n     * Count of products\n     */\n    function countOfProducts() external view returns (uint256) {\n        return _product_cnt;\n    }\n\n    /**\n     * Get the name of a product\n     */\n    function getNameOfProduct(uint256 id) external view returns (string) {\n        return _products[id].name;\n    }\n\n    /**\n     * Get the extend information of a product\n     */\n    function getExtendOfProduct(uint256 id) external view returns (string) {\n        return _products[id].extend;\n    }\n\n    /**\n     * Get the price of a product\n     */\n    function getPriceOfProduct(uint256 id) external view returns (uint256) {\n        return _products[id].price;\n    }\n\n    /**\n     * Get file uri\n     */\n    function getFileUri(uint256 id) external view returns (string) {\n        return _products[id].file_uri;\n    }\n\n    /**\n     * Get file hash\n     */\n    function getFileHash(uint256 id) external view returns (string) {\n        return _products[id].file_hash;\n    }\n\n    /**\n     * Get the information of a product\n     * Returns {name extend, price}\n     */\n    function getProduct(uint256 id) external view returns (string, string, uint256) {\n        return (_products[id].name, _products[id].extend, _products[id].price);\n    }\n\n    /**\n     * Add a payment method of Product\n     * Emits a {AddPaymentWay} event.\n     */\n    function addPaymentWay(uint coinID, uint256 productID, uint256 price) external onlyEnabled returns (uint256) {\n        require(_coins[coinID].id > 0, \"This token not exists\");\n        require(!_coins[coinID].disabled, \"This token have been disabled\");\n        require(_products[productID].id > 0, \"This product not exists\");\n        require(!_products[productID].removed, \"This product have been removed\");\n        require(!_products[productID].disabled, \"This product have been disabled\");\n        ProductPaymentWay[] storage ways = _payment_ways[productID];\n        for(uint i = 0; i < ways.length; i++) {\n            require(ways[i].coinID != coinID, \"This payment way exists!\");\n        }\n        _payment_ways_seq += 1;\n        _payment_ways[_payment_ways_seq].push(ProductPaymentWay({\n            id: _payment_ways_seq,\n            coinID: coinID,\n            productID: productID,\n            price: price\n        }));\n        emit AddPayment(_payment_ways_seq, coinID, productID, price);\n    }\n\n    /**\n     * Set the price of a payment of a product\n     * Emits a {SetPaymentWayPrice} event.\n     */\n    function setPaymentWayPrice(uint coinID, uint256 productID, uint256 price) external onlyEnabled {\n        require(_coins[coinID].id > 0, \"This token not exists\");\n        require(_products[productID].id > 0, \"This product not exists\");\n        ProductPaymentWay[] storage ways = _payment_ways[productID];\n        for(uint i = 0; i < ways.length; i++) {\n            if(ways[i].coinID == coinID) {\n                ways[i].price = price;\n                emit SetPaymentWayPrice(coinID, productID, price);\n                return;\n            }\n        }\n    }\n\n    /**\n     * Remove a payment.\n     * Emits a {RemovePayment} event.\n     */\n    function removePaymentWay(uint coinID, uint256 productID) external onlyEnabled {\n        require(_coins[coinID].id > 0, \"This token not exists\");\n        require(_products[productID].id > 0, \"This product not exists\");\n        ProductPaymentWay[] storage ways = _payment_ways[productID];\n        for(uint i = 0; i < ways.length; i++) {\n            if(ways[i].coinID == coinID) {\n                delete ways[i];\n                emit RemovePaymentWay(coinID, productID);\n                return;\n            }\n        }\n        require(false, \"Payment way not exists\");\n    }\n\n    /**\n     * Get price\n     */\n    function getPaymentWayPrice(uint coinID, uint256 productID) external view returns (uint256) {\n        require(_coins[coinID].id > 0, \"This token not exists\");\n        require(_products[productID].id > 0, \"This product not exists\");\n        ProductPaymentWay[] storage ways = _payment_ways[productID];\n        for(uint i = 0; i < ways.length; i++) {\n            if(ways[i].coinID == coinID) {\n                return ways[i].price;\n            }\n        }\n    }\n}",
  "sourcePath": "/Users/liaojinlong/Workspace/CPChain/pdash-contracts/contracts/Product.sol",
  "compiler": {
    "name": "solc",
    "version": "0.4.25+commit.59dbf8f1.Linux.g++"
  },
  "schemaVersion": "3.4.1",
  "updatedAt": "2021-09-13T08:29:45.859Z",
  "devdoc": {
    "methods": {
      "owner()": {
        "details": "Returns the address of the current owner."
      },
      "renounceOwnership()": {
        "details": "Leaves the contract without owner. It will not be possible to call `onlyOwner` functions anymore. Can only be called by the current owner.     * NOTE: Renouncing ownership will leave the contract without an owner, thereby removing any functionality that is only available to the owner."
      },
      "transferOwnership(address)": {
        "details": "Transfers ownership of the contract to a new account (`newOwner`). Can only be called by the current owner."
      }
    }
  },
  "userdoc": {
    "methods": {
      "addERC20(address)": {
        "notice": "Add new ERC20, returns a generated ID. Emits a {AddNewERC20} event."
      },
      "addPaymentWay(uint256,uint256,uint256)": {
        "notice": "Add a payment method of Product Emits a {AddPaymentWay} event."
      },
      "countOfProducts()": {
        "notice": "Count of products"
      },
      "createProduct(string,string,uint256,string,string)": {
        "notice": "Create product, returns a generated product id. Emits a {CreateProduct} event."
      },
      "disableERC20(uint256)": {
        "notice": "Disable a ERC20 Emits a {DisableERC20} event."
      },
      "disableProduct(uint256)": {
        "notice": "Disable product by admin Emits a {AdminDisableProduct} event."
      },
      "editProduct(uint256,string,string,uint256)": {
        "notice": "Edit Product Emits a {EditProduct} event."
      },
      "enableERC20(uint256)": {
        "notice": "Enable a ERC20 Emits a {EnableERC20} event."
      },
      "enableProduct(uint256)": {
        "notice": "Enable product by admin Emits a {AdminEnableProduct} event."
      },
      "getERC20(uint256)": {
        "notice": "Get ERC20 address by ID"
      },
      "getExtendOfProduct(uint256)": {
        "notice": "Get the extend information of a product"
      },
      "getFileHash(uint256)": {
        "notice": "Get file hash"
      },
      "getFileUri(uint256)": {
        "notice": "Get file uri"
      },
      "getNameOfProduct(uint256)": {
        "notice": "Get the name of a product"
      },
      "getPaymentWayPrice(uint256,uint256)": {
        "notice": "Get price"
      },
      "getPriceOfProduct(uint256)": {
        "notice": "Get the price of a product"
      },
      "getProduct(uint256)": {
        "notice": "Get the information of a product Returns {name extend, price}"
      },
      "isERC20Disabled(uint256)": {
        "notice": "Check if disabled"
      },
      "isFileExists(string,string)": {
        "notice": "If the file exists"
      },
      "isProductDisabled(uint256)": {
        "notice": "Check if product have been disabled"
      },
      "removeERC20(uint256)": {
        "notice": "Remove a ERC20 Emits a {RemoveERC20} event"
      },
      "removePaymentWay(uint256,uint256)": {
        "notice": "Remove a payment. Emits a {RemovePayment} event."
      },
      "removeProduct(uint256)": {
        "notice": "Remove Product Emits a {RemoveProduct} event."
      },
      "setPaymentWayPrice(uint256,uint256,uint256)": {
        "notice": "Set the price of a payment of a product Emits a {SetPaymentWayPrice} event."
      }
    }
  }
}